:1000000000308A00212800000A108A100A11820795
:10001000C034F934A4342430840083130008031955
:100020001E280630F800F701F70B1428F80B1328E8
:100030007B30F700F70B1A28800B11288A110A125F
:10004000622803081F398300A001FF30A100831636
:100050001F149F141F159F1107309C0083138801E4
:1000600083128801473083168800FF30870083128F
:10007000A10020080420A40083168801831224080C
:10008000880021142108831687008312A201071813
:10009000A20AA1142108831687008312A3018718DE
:1000A000A30A220B57288316061083120610220B70
:1000B0005D288316861083128610230B782814304F
:1000C000A4000B28230B7828A00A2008023C031C5C
:1000D000A00120080420A4008316880183122408AC
:1000E0008800A114210883168700831287187128BD
:1000F000A208031D7F288316061083120614A20887
:10010000031D8628831686108312861441286300F7
:02400E00323F3F
:00000001FF
;PIC16F877A
;CRC=E845  CREATED="03-Jul-25 12:24"
